:040000008A15AD2A86
:0E000600F201F101F001F801F30100300800F1
:10001400FB14FB1F1428FF30F300F200F100F00082
:08002400FA0DF20CFF30080098
:08002C00FA1FF2130030080076
:100034007B15FB1F24280130F300F201F101F001CC
:08004400FA0DF20CFF30080078
:10004C00103083120313FD00FD0B2A28000008005A
:10005C00083083120313FC002330FD00FD0B342801
:06006C00FC0B3428080023
:100072007C186F28FC1840287C198E283928A0018A
:100082007208031D60287108F2007008F1007808F8
:10009200F000F801A0157208031D60287108F20033
:1000A2007008F100F001A01120167208031D6028EB
:1000B2007108F200F101A0157208031982282008C4
:1000C200F302031D031C86280310F21B6F28F80D90
:1000D200F00DF10DF20DF30B662886287B1B701CC8
:1000E2008A28F81F8A28F00A0319F10A0319F20A6A
:1000F200031D8A28F20CF10CF00CF30A03198E2866
:100102008A280130FC00032091280230FC001A20CA
:1001120091280430FC00162091280830FC000A20A7
:0401220000000800D1
:0401260000000800CD
:10012A0083120313FA017308031D7A147708031D57
:10013A00FA147A080319E128033A0319AC287A1841
:10014A00A928F61FDF28DD28F21FDD28DF2872081C
:10015A008039FA00F21376088039F6137A06031901
:10016A00BA287A080319DD28DF28770873020319E9
:10017A00C128031CD528D928760872020319C82871
:10018A00031CD528D928750871020319CF28031C26
:10019A00D528D928740870020319E1280318D92828
:1001AA00FA080319DF28DD28FA080319DD28DF28F1
:1001BA0003140800031008000314031508000800BC
:1001CA00831203132230FC00F801F901FA01FB0142
:1001DA00FC0303191B290310FB0CFA0CF90CF80C8D
:1001EA00F30CF20CF10CF00C031CED28FC030319C0
:1001FA000D297408F80775080318750FF9077608AA
:10020A000318760FFA0777080318770FFB07F12808
:10021A007408F80775080318750FF90776080318A4
:0E022A00760FFA0777080318770FFB07080016
:10023800A0017208031D31297108F2007008F1004D
:10024800F001A0157208031D31297108F200F101AF
:10025800A0112016720803193F292008F302031D74
:10026800031C43290310F21B4729F00DF10DF20D71
:10027800F30B372943290130FC0003204A290230B7
:0E028800FC001A204A290430FC001620080051
:1002960083120313FB017308031D77080319A229B0
:1002A60072087606FA007708F3077E30031C5F298A
:1002B600F3020318A5296229F302031CA829720870
:1002C600F8007108FC007008FD00F817F617031017
:1002D600F201F101F0011830A0007D1C7C297408A0
:1002E600F00775080318750FF10776080318760FDF
:1002F600F207F20CF10CF00CF80CFC0CFD0C0310E0
:10030600A00B7029F21B8C29F80DF00DF10DF20DE2
:10031600F3037B1B701C9E29F81F9E29F00A031904
:10032600F10A0319F20A031D9E29F20CF10CF00CD6
:10033600F30A0319A529FA1FF2130030AA2901307E
:100346000320AA2902300A20AA2904301A20000014
:0203560008009D
:100358008312031373087706031DBF2972087606F4
:10036800031DBF2971087506031DBF29700874068F
:0C03780003190315080003110800080019
:10038400831603134908203A0319D32949080D3C5D
:10039400031CD12909304902031CD129D329F001B6
:0803A400D5290130F00008002A
:1003AC00831203137008F8007108F0007208F10052
:1003BC007308F200F301FB01FC019E30F300FA011B
:1003CC00F21FF429F809F009F109F209F80A0319E6
:1003DC00F00A0319F10A0319F20AFA170230FC00A9
:0403EC0039200800AC
:1003F00083160313C91BFF2983128611012A831256
:1004000086158316491B072A83120611092A8312AF
:1004100006158316C91A0F2A83128610112A831211
:1004200086148316491A172A83120610192A831272
:1004300006146E181D2A06161E2A0612861693200A
:1004400086128316C919272A83128611292A831234
:100450008615831649192F2A83120611312A831211
:1004600006158316C918372A83128610392A831273
:100470008614831649183F2A83120610412A8312D4
:1004800006146E18452A0616462A0612861693206A
:0E04900086126E1C4D2A2E204E2A26200800B1
:10049E00831203137008F100F0010830FC0071089C
:1004AE00F40C03185E2AFC0B572AF10100340310DA
:1004BE00632AF40C0318F107F10CF00CFC0B602A04
:0204CE00080024
:1004D000831603134908393C031C752A303049023E
:0E04E000031C752A0130F000762AF001080096
:1004EE0083160313C001C201C3011030C4000430CF
:1004FE0043020318AC2AF030831288008030F000DB
:10050E007008083E840083164409F00070088000CD
:10051E00932093200F3083120805F0007008831685
:10052E00C10070080319A62A4208C0004108031929
:10053E00A42AC10CC113C00A9D2A0430C300C40DE5
:10054E0044100430C207C30A7E2A4008F000080097
:0E055E008316031331088A003008820008005B
:10056C0083120313FB01FA01F9018030F800F10C3E
:10057C00F00C031CCA2A7408F90775080318750FC8
:10058C00FA070318FB0A0310F01FD22A7408FA07A3
:10059C0075080318750FFB07FB0CFA0CF90CF80C1B
:1005AC00031CBD2A7B08F3007A08F2007908F100DD
:0605BC007808F0000800C1
:0E05C200033083120313FD00FD0BE52A080031
:0605D000FB15FF300800DE
:1005D6008316031341080319F42A410884004008CE
:1005E6008000400884000008F0007008C40070080D
:1005F600C900C22170080319022BC00AF42AC201DD
:100606000030C41BFF30F00000307006031D0D2BB8
:100616002D304406031D132B0130C200C00A202BC7
:100626000030C41BFF30F00000307006031D1D2B88
:100636002B304406031D202BC00AC401C501C60188
:10064600C701C801C301421A312B400884000008C3
:100656002E3A031D312B4216C00A8C2B400884000B
:100666000008C90068227008031D3A2B8D2BC2149E
:100676000030C41BFF30003A031D432B08304406EC
:100686000319882B421E482BC303C40A4508F000F1
:100696004608F1004708F2004808F3000A30F40063
:1006A600F501F601F701E52070088316C50071080B
:1006B600C6007208C7007308C800000000004008A2
:1006C600840030300002F000F101031CF103003019
:1006D600F11BFF30F200F3004508F0074608031847
:1006E600460FF10747080318470FF2074808031893
:1006F600480FF3077008C5007108C6007208C700E6
:100706007308C800000000008B2B421A8B2BC30A0B
:10071600C00A262BC401400884000008653A031964
:100726009B2B400884000008453A03199B2BF42BA9
:10073600C00A4008840000082D3A031DA52BC215E7
:10074600C00AAC2B4008840000082B3A031DAC2BD2
:10075600C00A400884000008303A031DB42BC00AC2
:10076600AC2B400884000008C900682270080319F1
:10077600EF2B4008840030300002C400C00A400855
:1007860084000008C900682270080319EF2B44088A
:10079600F0000A30F4004F228316400884003030FF
:1007A6000002F10071087007C400C00A4008840006
:1007B6000008C900682270080319EF2B4408F000EE
:1007C6000A30F4004F2283164008840030300002BD
:1007D600F10071087007C400C21DF42B4408003CE8
:1007E600C4004408C3074108003A0319002CC21C80
:1007F600002C41088400400880004508F0004608A7
:10080600F1004708F2004808F300D6217008831665
:10081600C5007108C6007208C7007308C800F40155
:10082600F501F601F7014508F0004608F100470812
:10083600F2004808F300AC210130031D0030F0003F
:10084600700803192B2CF001F101F201F301392D87
:10085600803083164306F0008030003A7002031899
:10086600AA2C4308003CC30080304306F0008030C9
:100876000A3A7002031C5C2C4508F0004608F10099
:100886004708F2004808F300FF30F400E630F500B0
:100896005B30F6005D30F7004B2170088316C5000B
:1008A6007108C6007208C7007308C8000A30C30280
:1008B600372C4308003A03197C2C4508F0004608FB
:1008C600F1004708F2004808F300CD30F400CC30C0
:1008D600F5004C30F6007B30F7004B21700883168C
:1008E600C5007108C6007208C7007308C800C303B4
:1008F6005C2C0130F4000030F5000030F6000130C9
:10090600F7004508F0004608F1004708F2004808DD
:10091600F3009520013003180030F0007008031929
:10092600A92C8316421CA02C0130F0000030F100E7
:100936008030F2000330F300392D0130F000003032
:10094600F1000030F2000130F300392D212D83161D
:100956008030003AF0008030430670020318212DE3
:100966000A304302031CD42C4508F0004608F10067
:100976004708F2004808F300F930F4000230F500A9
:100986001530F600A030F7004B2170088316C5001D
:100996007108C6007208C7007308C8000A30C3028F
:1009A600B32C4308003A0319F42C4508F000460816
:1009B600F1004708F2004808F3000030F400003068
:1009C600F5002030F6008230F7004B2170088316C0
:1009D600C5007108C6007208C7007308C800C303C3
:1009E600D42C4508F4004608F5004708F6004808E8
:1009F600F700FF30F000FF30F1007F30F200FF30EB
:100A0600F3009520013003180030F0007008031938
:100A1600212D8316421C182DFF30F000FF30F10007
:100A2600FF30F200FF30F300392DFF30F000FF30C9
:100A3600F1007F30F200FF30F300392D8316421C9F
:100A4600312D00304506F00000304606F1008030BA
:100A56004706F20000304806F300392D4508F0003D
:0E0A66004608F1004708F2004808F3000800B7
:100A740083120313FD01F80170080319003474068E
:100A8400FA00FA1BFD09FB01F41F4A2DF409F40ACC
:100A9400F01F4E2DF009F00A70087404FA00FA1BD6
:100AA400722D7408F802F00D700DF80D7408F80733
:100AB400F00D0630FC00700DF80D74087018F80283
:100AC400701CF807F00DFC0B5D2D701CF8077B18EB
:100AD400802DFD1F0034F009F00AF809F80A0034EB
:100AE400F41F7D2DF01B7A2D7008F800F0016B2D9A
:100AF400F001F00A0034F009FB0A532DF80A7408D7
:100B04007802031D6B2DF801F00AF01F6B2DFF34E2
:020B14000800D7
:100B16008312031372087606A000F801F901730820
:100B26007702031CAE2D7708FD007308F7007D08D9
:100B3600F3007608FD007208F6007D08F2007508DD
:100B4600FD007108F5007D08F1007408FD007008CD
:100B5600F4007D08F00077080319272E7208FA00C2
:100B6600F217F61777087302F7000319E12D08301C
:100B76007702031CD72DF7007408F9007508F400F6
:100B86007608F500F60108307702031CD72DF7002A
:100B96007408F9007508F400F50108307702031CA3
:100BA600D72D7A08F200272E77080319E12D0310B6
:100BB600F60CF50CF40CF90CF70BDA2DA01FEE2D44
:100BC600F909F409F509F609F90A0319F40A0319EA
:100BD600F50A0319F60A7908F80774080318740F5A
:100BE600F00775080318750FF10776080318760FD6
:100BF600F207A01B072E031C172EF20CF10CF00CAB
:100C0600F80CF30F172E232E03181B2EF809F009E4
:100C1600F109F209F80A0319F00A0319F10A03198E
:100C2600F20A8030FA061F2E0130FC003920292EE8
:100C36000230FC003920292E0430FC001C21292E0C
:100C46000830FC000A20292E0030FC0000000800B5
:100C5600831203136E1083164008C900F8216E1420
:020C6600080084
:100C6800831603134008F2007208F100F20A4108E3
:100C7800F000C10A700884000008F00071088400C0
:100C88007008800071088400000803194C2E382E63
:060C98004008F000080016
:0E0C9E00831603133308C000C101EB220800C7
:100CAC00831603133308F20072088400000803193A
:100CBC00612EF20A5A2E7208F100F20A3408F00082
:100CCC00B40A700884000008F000710884007008F1
:100CDC0080007108840000080319752E612E3308FA
:040CEC00F00008000C
:0C0CF000831203138030F6068B250800E9
:100CFC0077227008B3000F3083120805F000031937
:0E0D0C00892EE122812E83163308F0000800A4
:100D1A00831203137408003A031DA82E7508003ABB
:100D2A00031DA82E7608003A031DA82E7708003A5C
:100D3A00031DA82EFF30F000FF30F1007F30F200D3
:100D4A00FF30F300432F8312031377080319372F59
:100D5A00730803193A2F720876068039FA00F217D7
:100D6A00F617A0017208F8007108FC007008FD006F
:100D7A007408FD027508031C750FFC027608031C33
:100D8A00760FF802F801FC01FD01031CD32E0310B3
:100D9A00F20CF10CF00CF80C0130A0007708F30209
:100DAA00031CDD2E7E302007F30703183D2FE22EA9
:100DBA007E302007F307031C402F1830FA07FD0D79
:100DCA00FC0DF80DF00DF10DF20DA00D7408F002F6
:100DDA007508031C750FF1027608031C760FF202E0
:100DEA00760DA004201CFB2E7D14062F7408F00734
:100DFA0075080318750FF10776080318760AF207C3
:100E0A007D10FA031F307A05031DE42E7B1B7D1C1F
:100E1A002D2F0310F00DF10DF20DA00D7408F00244
:100E2A007508031C750FF1027608031C760FF2028F
:100E3A00760D20040139FD070318FC0A0319F80A84
:100E4A00031D2D2FF80CFC0CFD0CF30A03193D2F82
:100E5A00FA1FF8137808F2007C08F1007D08F00008
:100E6A000030422F0130E822422F02300320422F65
:0E0E7A0004300A20422F08301A200000080021
:100E8800AF228A110A128000840AB00A0319B10A33
:080E9800F003031D442F0800C4
:100EA0008316031386120612061086100611861189
:100EB00083128612061286110611861006102E2045
:100EC0002E202E20861406148616932086122E209D
:100ED0008616932086122E208616932086122E20A8
:100EE00006108616932086122E20861693208612D0
:100EF000861086158616932086122E2086110614DB
:100F000086169320861206108616932086122E20AF
:100F100086169320861206148616932086122E209B
:100F2000061086169320861286150615861406145A
:0C0F30008616932086122E206E140800F6
:100F3C00B02F803083160313B300C32FC030B3001F
:100F4C00C32F9430B300C32FD430B300C32F8030E1
:100F5C00B300C32F831603133308013A03199F2FD1
:100F6C003308023A0319A42F3308033A0319A72FA5
:100F7C003308043A0319AA2FAD2F3403F0003308B9
:100F8C00F0077008B3007008C900F8216E108316C2
:100F9C00B60136083507840000080319DE2F360821
:100FAC00350784000008C0002B268316B60ACF2F05
:060FBC0083126E14080010
:100FC200803083120313F0007008083E8400FF3063
:040FD2008000080093
:100FD80021308400313083120313F000CE308316A1
:0A0FE800B0000E30B10044270800ED
:1010000083160313BE01BF013308BA003408BB00C6
:101010003508BC003608BD003D08FF3A031D1A28FC
:101020003C08FF3A031D1A283B08FF3A031D1A2803
:101030003A08FF3A031D26283708C0003E30C10099
:101040008A1134268A150330F000172A0130B800BF
:10105000BC1F352880303C06F0007008BC00B80A80
:10106000370884002D308000B70A0030F0003D06BC
:10107000031D442870083C06031D442870083B06E5
:10108000031D44283A08003A031D4F283708C000C2
:101090004230C1008A1134268A15F001172A3D0812
:1010A000FF3A031D5D283C08003A031D5D283B08FC
:1010B000003A031D5D283A08003A031D69283708E5
:1010C000C0003A30C1008A1134268A153808F00071
:1010D000172A0030F4000030F5000030F6007F30B1
:1010E000F7003A08F0003B08F1003C08F2003D0828
:1010F000F3008A1195208A15013003180030F000A2
:1011000070080319A22883163A08F0003B08F10082
:101110003C08F2003D08F3000030F4000030F50018
:101120002030F6008230F7008A114B218A157008B2
:101130008316BA007108BB007208BC007308BD00BA
:10114000BF03692883160030F4000030F50020301A
:10115000F6008230F7003A08F0003B08F1003C0846
:10116000F2003D08F3008A1195208A150130031C16
:101170000030F00070080319DC2883163A08F000EC
:101180003B08F1003C08F2003D08F300CD30F400CC
:10119000CC30F5004C30F6007B30F7008A114B2143
:1011A0008A1570088316BA007108BB007208BC006B
:1011B0007308BD00BF0AA2288316FF303A05F80065
:1011C000FF303B05F9007F303C05FA0000303D055B
:1011D000FB007808F4007908F5007A08F6007B082F
:1011E000F700F40DF50DF60DF70D741000303A050B
:1011F000F00000303B05F10000303C05F200FF300C
:101200003D05F3007008BA007108BB007208BC000D
:101210007308BD0074083A04F00075083B04F1003F
:1012200076083C04F20077083D04F3007008BA0029
:101230007108BB007208BC007308BD007F303D021E
:10124000F0007008B9000130BD007008F4003A08E1
:10125000F0003B08F1003C08F2003D08F300740880
:1012600003193929F00DF10DF20DF30D7010FF3E49
:1012700030297008BA007108BB007208BC007308FE
:10128000BD003D08303EF000370884007008800043
:10129000B70A80303F06F0008030013A7002031C2C
:1012A0005A298030063AF00080303F067002031C55
:1012B0005A296129370884002E308000B70A01308E
:1012C000BE000630B9003908003A0319BF29BD0134
:1012D0003A08F0003B08F1003C08F2003D08F3003A
:1012E000F00DF10DF20DF30D7010F00DF10DF20D8A
:1012F000F30D70103A08F0073B0803183B0FF10795
:101300003C0803183C0FF2073D0803183D0FF30794
:101310007008BA007108BB007208BC007308BD00F9
:101320003A08F0003B08F1003C08F2003D08F300E9
:10133000F00DF10DF20DF30D70107008BA00710888
:10134000BB007208BC007308BD003D08303EF000D1
:101350003708840070088000B70A3E08003A031D71
:10136000BD29BF033F08003A031DBD29370884008B
:101370002E308000B70A0130BE00B9036329FF3068
:10138000370784000008303A031DC829B703BF2976
:10139000FF303707840000082E3A031DD029B70319
:1013A0003F08003A0319132A37088400653080008B
:1013B000B70A80303F06F0008030003A7002031810
:1013C000E929370884002D308000B70A3F08003C27
:1013D000BF003F08B9008030093AF00080303F0676
:1013E00070020318022A0A30F4003908F0008A114A
:1013F0003A258A153030F0078316370884007008C4
:101400008000B70A0A30F4003908F0008A113A2542
:101410008A157808F0003030F0078316370884000A
:1014200070088000B70A370884008001F0010800C6
:10143000831203137008F8007108F000F101F20143
:10144000F301FB01FC019630F300FA01F01F2E2A94
:10145000F809F009F80A0319F00AFA177008F10000
:101460007808F000F801F2018A111C218A150800A1
:1014700083160313330884000008B400B50100305C
:10148000B50000303506031D472A20303406031905
:10149000522A00303506031D4F2A0930340603193D
:1014A000522A542AB30A382AB601B701B801B90141
:1014B00000303506031D5E2A2D303406031D652AD3
:1014C000B80A0319B90AB30A6E2A00303506031D9B
:1014D0006B2A2B303406031D6E2AB30A33088400AE
:1014E0000008B400B5010030B5003408C9008A1105
:1014F00068228A15700803199B2A3608F0003708FD
:10150000F1000A30F4000030F5008A11B6228A1585
:10151000303083163402F2000030031C013E3502E5
:10152000F30072087007B60071080318013E7307D4
:10153000B700B30A6E2A380839040319A82A3608F6
:10154000003CF0003708031C013EF101F102AC2A17
:0A1550003608F0003708F10008002B
:10155A008A11EC278A1583160313B2018312EF014D
:10156A00EB30E400E401E501E601E7018A11E12735
:10157A008A1583160317880189018A1150278A154B
:10158A0001308316C9008A11F8218A150C30831696
:10159A00C9008A11F8218A1501308316B300013077
:1015AA00B4003030B5008A119E278A158312D30100
:1015BA00EC018A117E268A1570088312D3007008FE
:1015CA000319DE2A7B2E3130ED0054308316B30026
:1015DA003230B4008A1156268A150130C9008A11A0
:1015EA00F8218A150C308316C9008A11F8218A1548
:1015FA0001308316B3000130B4005430B5008A11AB
:10160A009E278A1554308316B3008A114F268A15ED
:10161A00831203137008E8007108E9007208EA00EF
:10162A007308EB00EF01BB2E3230ED005430831605
:10163A00B3002E30B4008A1156268A150130C9002B
:10164A008A11F8218A150C308316C9008A11F821EB
:10165A008A1501308316B3000130B4005430B50046
:10166A008A119E278A1554308316B3008A114F2691
:10167A008A15831203137008E8007108E9007208DA
:10168A00EA007308EB00EF01BB2E3330ED00543053
:10169A008316B3002430B4008A1156268A15013005
:1016AA00C9008A11F8218A150C308316C9008A11DB
:1016BA00F8218A1501308316B3000130B400543082
:1016CA00B5008A119E278A1554308316B3008A11F1
:1016DA004F268A15831203137008E8007108E9007F
:1016EA007208EA007308EB00EF01BB2E2F30ED0001
:1016FA002F30D20001308316C9008A11F8218A15C9
:10170A000C308316C9008A11F8218A150130831614
:10171A00B3000130B4002130B5008A119E278A1522
:10172A00EF0154308316C0002330C1008A113426D9
:10173A008A1583126C08003A031DAD2B6808E40071
:10174A006908E5006A08E6006B08E7000130EC006A
:10175A00BB2E3430ED0054308316B3002A30B40067
:10176A008A1156268A150130C9008A11F8218A156C
:10177A000C308316C9008A11F8218A1501308316A4
:10178A00B3000130B4005430B5008A119E278A157F
:10179A0054308316B3008A114F268A158312031315
:1017AA007008E8007108E9007208EA007308EB00A3
:1017BA00EF01BB2E3530ED0054308316B3002C30C8
:1017CA00B4008A1156268A150130C9008A11F821F7
:1017DA008A150C308316C9008A11F8218A1501303E
:1017EA008316B3000130B4005430B5008A119E2725
:1017FA008A1554308316B3008A114F268A1583122C
:10180A0003137008E8007108E9007208EA00730817
:10181A00EB00EF01BB2E3630ED0054308316B300D7
:10182A002630B4008A1156268A150130C9008A1159
:10183A00F8218A150C308316C9008A11F8218A15F5
:10184A0001308316B3000130B4005430B5008A1158
:10185A009E278A1554308316B3008A114F268A159B
:10186A00831203137008E8007108E9007208EA009D
:10187A007308EB00EF01BB2E5830ED005830D20050
:10188A0001308316C9008A11F8218A150C30831693
:10189A00C9008A11F8218A1501308316B300013074
:1018AA00B4002830B5008A119E278A15EF015430FA
:1018BA008316C0003430C1008A1134268A15831277
:1018CA006C08003A031D732C6808E4006908E500F7
:1018DA006A08E6006B08E7000130EC00BB2E3730DF
:1018EA00ED0054308316B3004830B4008A115626EE
:1018FA008A150130C9008A11F8218A150C3083161D
:10190A00C9008A11F8218A1501308316B300013003
:10191A00B4005430B5008A119E278A1554308316B4
:10192A00B3008A114F268A15831203137008E80040
:10193A007108E9007208EA007308EB00EF01BB2E98
:10194A003830ED0054308316B3004A30B4008A119F
:10195A0056268A150130C9008A11F8218A150C30D9
:10196A008316C9008A11F8218A1501308316B3003B
:10197A000130B4005430B5008A119E278A155430BC
:10198A008316B3008A114F268A158312031370082F
:10199A00E8007108E9007208EA007308EB00EF0139
:1019AA00BB2E3930ED0054308316B3004430B400F6
:1019BA008A1156268A150130C9008A11F8218A151A
:1019CA000C308316C9008A11F8218A150130831652
:1019DA00B3000130B4005430B5008A119E278A152D
:1019EA0054308316B3008A114F268A1583120313C3
:1019FA007008E8007108E9007208EA007308EB0051
:101A0A00EF01BB2E2D30ED002D30D20001308316B0
:101A1A00C9008A11F8218A150C308316C9008A1167
:101A2A00F8218A1501308316B3000130B40046301C
:101A3A00B5008A119E278A15EF0154308316C0001B
:101A4A005030C1008A1134268A1583126C08003A74
:101A5A00031D392D6808E4006908E5006A08E600F4
:101A6A006B08E7000130EC00BB2E4330ED00543028
:101A7A008316C0005130C1008A1134268A150130FC
:101A8A00C9008A11F8218A150C308316C9008A11F7
:101A9A00F8218A1501308316B3000130B4004C30A6
:101AAA00B5008A119E278A156F08013A031D622D17
:101ABA00E401E501E601E701EC010130EF00BB2E8C
:101ACA003030ED0054308316B3004E30B4008A1122
:101ADA0056268A150130C9008A11F8218A150C3058
:101AEA008316C9008A11F8218A1501308316B300BA
:101AFA000130B4005430B5008A119E278A1554303B
:101B0A008316B300382218227008E8007108E90029
:101B1A007208EA007308EB00EF01BB2E3D30ED00BE
:101B2A00062E6808F4006908F5006A08F6006B08D2
:101B3A00F7006408F0006508F1006608F20067081B
:101B4A00F3008A118D268A157008E4007108E500F1
:101B5A007208E6007308E700162E6408F0006508AC
:101B6A00F1006608F2006708F3006808F4006908E3
:101B7A00F5006A08F6006B08F7008A114B218A15EE
:101B8A007008E4007108E5007208E6007308E700CF
:101B9A00162E6808F4006908F5006A08F6006B0852
:101BAA00F7006408F0006508F1006608F2006708AB
:101BBA00F3008A1178268A157008E4007108E50096
:101BCA007208E6007308E700162E6408F00065083C
:101BDA00F1006608F2006708F3006808F400690873
:101BEA00F5006A08F6006B08F7008A118B258A153A
:101BFA007008E4007108E5007208E6007308E7005F
:101C0A00162E52082F3A0319962D5208583A0319DC
:101C1A00B22D52082D3A0319CE2D52082B3A031928
:101C2A00EA2D64088316B300831265088316B4008C
:101C3A00831266088316B500831267088316B600F6
:101C4A00A030B70000200130C9008A11F8218A1596
:101C5A000C308316C9008A11F8218A1501308316BF
:101C6A00B3000130B400A030B5008A119E278A154E
:101C7A00EF0154308316C0003730C1008A11342670
:101C8A008A15BB2E2B308312ED002B30D200013087
:101C9A008316C9008A11F8218A150C308316C900E7
:101CAA008A11F8218A1501308316B3000130B40075
:101CBA003830B5008A119E278A15EF0154308316F1
:101CCA00C0003530C1008A1134268A1583126C0887
:101CDA00003A031D7A2E6808E4006908E5006A08DC
:101CEA00E6006B08E7000130EC00BB2E5308013A0E
:101CFA000319E82A5308023A0319192B5308033A1D
:101D0A0003194A2B5308043A03197B2B5308053A43
:101D1A000319AE2B5308063A0319DF2B5308073A67
:101D2A000319102C5308083A0319412C5308093A8D
:101D3A000319742C53080A3A0319A52C53080B3AB1
:101D4A000319D62C53080C3A0319072D53080D3AD8
:101D5A0003193A2D53080E3A0319652D53080F3A01
:101D6A000319932D5308103A0319472E8312530867
:101D7A0036060319C72E01308316B20083125308A0
:0C1D8A00B600C92E8316B20ADB2ACA2E4E
:020FD6000034E5
:041D9C002F340034AC
:021DA00000340D
:041DA20033340034A2
:041DA600363400349B
:041DAA007834003455
:041DAE003434003495
:041DB2003534003490
:041DB600323400348F
:041DBA00303400348D
:041DBE003134003488
:021DC2000034EB
:021DC4000034E9
:021DC6000034E7
:021DC8000034E5
:041DCA002B34003482
:081DCE0049344E344634003460
:081DD6004E3461344E34003438
:041DDE003034003469
:041DE200393400345C
:041DE6002D34003464
:041DEA003734003456
:041DEE003834003451
:041DF2003034003455
:041DF6003034003451
:021DFA000034B3
:021DFC000034B1
:04400E00F22F000786
:00000001FF
