:040000008A15002835
:10000600103083120313FD00FD0B072800000800C3
:10001600083083120313FC002330FD00FD0B11286A
:06002600FC0B112808008C
:04002C0000000800C8
:100030007B15FB1F22280130F300F201F101F001D2
:08004000FA0DF20CFF3008007C
:10004800FB14FB1F2E28FF30F300F200F100F00034
:08005800FA0DF20CFF30080064
:1000600083160313AB1B3728831286123928831299
:10007000861683162B1B3F288312061241288312F3
:1000800006168316AB1A4728831286114928831255
:10009000861583162B1A4F288312061151288312B6
:1000A00006153718552806145628061086141620EB
:1000B00086108316AB195F2883128612612883127B
:1000C000861683162B196728831206126928831255
:1000D00006168316AB186F288312861171288312B7
:1000E000861583162B187728831206117928831218
:1000F000061537187D2806147E280610861416204B
:0E0100008610371C85280B2086280320080057
:08010E00FA1FF2130030080093
:1001160083120313F801F9011030FC00710DF80D7C
:10012600F90D7408F8027508031C750FF902031817
:10013600A3287408F80775080318750FF907031044
:0A014600F00DF10DFC0B91280800EC
:0E015000F201F101F001F801F30100300800A6
:10015E0083120313371083162608AB003020371492
:02016E00080087
:0E0170008312031336088A0035088200080047
:10017E00A0017208031DD4287108F2007008F10066
:10018E00F001A0157208031DD4287108F200F101C8
:10019E00A011201672080319E2282008F302031D8D
:1001AE00031CE6280310F21BEA28F00DF10DF20DE8
:1001BE00F30BDA28E6280130FC00A820ED280230E7
:0E01CE00FC001820ED280430FC0087200800FB
:0E01DC00073083120313FD00FD0BF22808000C
:1001EA007B14FB1F0029F201FA1FFF30F200F10015
:0A01FA00F000FA0DF20CFF300800CF
:1002040083120313FA017308031D7A147708031D7C
:10021400FA147A0803194E29033A031919297A188A
:100224001629F61F4C294A29F21F4A294C2972081B
:100234008039FA00F21376088039F6137A06031926
:1002440027297A0803194A294C29770873020319C4
:100254002E29031C422946297608720203193529DE
:10026400031C422946297508710203193C29031C01
:10027400422946297408700203194E290318462995
:10028400FA0803194C294A29FA0803194A294C295E
:1002940003140800031008000314031508000800E1
:1002A400831603132608F2007208F100F20A2708E5
:1002B400F000A70A700884000008F00071088400A8
:1002C4007008800071088400000803196A295629FF
:0602D4002608F0000800FE
:1002DA0083160313A9010530290203187B2929086B
:1002EA002807840020308000A90A702929082807D5
:1002FA0084008001A90329082807AA000A30F4000B
:10030A00F5012608F0002708F1008B207808F00094
:10031A007908F1003030F00783162A088400700843
:10032A0080000A30F400F5012608F0002708F100E1
:10033A008B2070088316A6007108A700003071068A
:10034A00031DA92900307006031DAC29AE29A90393
:04035A0080290800EE
:10035E0083120313FB01FA01F9018030F800F10C4E
:10036E00F00C031CC3297408F90775080318750FE0
:10037E00FA070318FB0A0310F01FCB297408FA07BB
:10038E0075080318750FFB07FB0CFA0CF90CF80C2B
:10039E00031CB6297B08F3007A08F2007908F100F5
:0603AE007808F0000800D1
:1003B40083120313FB017308031D77080319312A01
:1003C40072087606FA007708F3077E30031CEE29DC
:1003D400F3020318342AF129F302031C372A7208A2
:1003E400F8007108FC007008FD00F817F6170310F8
:1003F400F201F101F0011830A0007D1C0B2A7408F1
:10040400F00775080318750FF10776080318760FBF
:10041400F207F20CF10CF00CF80CFC0CFD0C0310C0
:10042400A00BFF29F21B1B2AF80DF00DF10DF20DA4
:10043400F3037B1B701C2D2AF81F2D2AF00A0319C5
:10044400F10A0319F20A031D2D2AF20CF10CF00C27
:10045400F30A0319342AFA1FF2130030392A01303F
:10046400A820392A02302420392A04301820000018
:0204740008007E
:1004760083120313FD01F801700803190034740692
:10048600FA00FA1BFD09FB01F41F4B2AF409F40AD2
:10049600F01F4F2AF009F00A70087404FA00FA1BDC
:1004A600732A7408F802F00D700DF80D7408F80739
:1004B600F00D0630FC00700DF80D74087018F80287
:1004C600701CF807F00DFC0B5E2A701CF8077B18F1
:1004D600812AFD1F0034F009F00AF809F80A0034F1
:1004E600F41F7E2AF01B7B2A7008F800F0016C2AA4
:1004F600F001F00A0034F009FB0A542AF80A7408DD
:100506007802031D6C2AF801F00AF01F6C2AFF34EA
:020516000800DB
:100518009E2A803083120313E900B12AC030E90013
:10052800B12A9430E900B12AD430E900B12A8030E8
:10053800E900B12A831203136908013A03198D2AC5
:100548006908023A0319922A6908033A0319952A95
:100558006908043A0319982A9B2A6A03F000690873
:10056800F0077008E90070088316AB0030203710D8
:10057800EC016C086B07840000080319CC2A6C088E
:100588006B07840000088316A600AF20EC0ABD2A7A
:04059800371408000C
:10059C0083160313A401A501831269088316A00016
:1005AC0083126A088316A10083126B088316A200BB
:1005BC0083126C088316A3002308FF3A031DF02A4C
:1005CC002208FF3A031DF02A2108FF3A031DF02AE6
:1005DC002008FF3A031DFC2A83126D088316A6001F
:1005EC002130A70052210330F000FC2C0130831283
:1005FC00EE008316A21F0E2B80302206F00070082E
:10060C00A2008312EE0A6D0884002D308000ED0AE2
:10061C000030F00083162306031D1E2B70082206E3
:10062C00031D1E2B70082106031D1E2B2008003AEB
:10063C00031D292B83126D088316A6002930A700F1
:10064C005221F001FC2C2308FF3A031D372B220802
:10065C00003A031D372B2108003A031D372B2008C5
:10066C00003A031D442B83126D088316A60031300B
:10067C00A700522183126E08F000FC2C0030F4000D
:10068C000030F5000030F6007F30F70083162008AC
:10069C00F0002108F1002208F2002308F3000221E7
:1006AC00013003180030F000700803197A2B831600
:1006BC002008F0002108F1002208F2002308F300C2
:1006CC000030F4000030F5002030F6008230F700E6
:1006DC00DA2170088316A0007108A1007208A2002C
:1006EC007308A300A503442B83160030F4000030DC
:1006FC00F5002030F6008230F7002008F0002108C9
:10070C00F1002208F2002308F30002210130031C3F
:10071C000030F00070080319B02B83162008F0008D
:10072C002108F1002208F2002308F300CD30F40078
:10073C00CC30F5004C30F6007B30F700DA21700835
:10074C008316A0007108A1007208A2007308A30010
:10075C00A50A7A2B8316FF302005F800FF302105FF
:10076C00F9007F302205FA0000302305FB007808E1
:10077C00F4007908F5007A08F6007B08F700F40D10
:10078C00F50DF60DF70D741000302005F00000305B
:10079C002105F10000302205F200FF302305F300A3
:1007AC007008A0007108A1007208A2007308A300D1
:1007BC0074082004F00075082104F1007608220466
:1007CC00F20077082304F3007008A0007108A10060
:1007DC007208A2007308A3007F302302F000700897
:1007EC008312EF0001308316A3007008F400200878
:1007FC00F0002108F1002208F2002308F30074082D
:10080C0003190F2CF00DF10DF20DF30D7010FF3ECE
:10081C00062C7008A0007108A1007208A2007308D1
:10082C00A3002308303EF00083126D08840070088A
:10083C008000ED0A803083162506F0008030013AE6
:10084C007002031C322C8030063AF00080302506F2
:10085C007002031C322C3B2C83126D0884002E304A
:10086C008000ED0A01308316A40006308312EF00DD
:10087C006F08003A0319A02C8316A3012008F0007E
:10088C002108F1002208F2002308F300F00DF10D0D
:10089C00F20DF30D7010F00DF10DF20DF30D701053
:1008AC002008F00721080318210FF107220803186C
:1008BC00220FF20723080318230FF3077008A00078
:1008CC007108A1007208A2007308A3002008F000B0
:1008DC002108F1002208F2002308F300F00DF10DBD
:1008EC00F20DF30D70107008A0007108A1007208D1
:1008FC00A2007308A3002308303EF00083126D0899
:10090C00840070088000ED0A83162408003A031D49
:10091C009D2CA5032508003A031D9D2C83126D0800
:10092C0084002E308000ED0A01308316A40083125F
:10093C00EF033E2CFF306D0784000008303A031D96
:10094C00A92CED03A02CFF306D07840000082E3A73
:10095C00031DB12CED0383162508003A0319F72C5F
:10096C0083126D08840065308000ED0A8030831698
:10097C002506F0008030003A70020318CF2C831249
:10098C006D0884002D308000ED0A83162508003C8C
:10099C00A50025088312EF008030093AF000803062
:1009AC008316250670020318E82C0A30F400831213
:1009BC006F08F0003B223030F0076D08840070089F
:1009CC008000ED0A83120A30F4006F08F0003B221D
:1009DC007808F0003030F0076D0884007008800053
:0E09EC00ED0A83126D0884008001F0010800FE
:1009FA00C330831203139F05C0309F006908F000BB
:100A0A00F00D7010F00D701070089F042509F000A9
:100A1A00700883169F059F1783121F14EE209F14D8
:100A2A009F1C192D0000152D1F101E08F100F00142
:0C0A3A0083161E08F0040030F1040800D0
:100A460083120313FB01FC01FA0173080319502DED
:100A5600FA13F2178630F302F31B342D0319342DE3
:100A6600522DF309F30A08307302031C412DF300DB
:100A7600F20DF2017308031D0310482D73080319C4
:100A8600482D0310F20CF30B442D7B1B721C502DCA
:100A9600031C502DF20A0319572DF1015A2D7B1410
:100AA600FB1F5D2DF1015D2D0130FC005F2D003037
:100AB600FC005F2DFF30FC00FC080319632DF520B8
:060AC6007208F0000800B8
:100ACC00831203137008F8007108F000F101F201B1
:100ADC00F301FB01FC019630F300FA01F01F7C2DB1
:100AEC00F809F009F80A0319F00AFA177008F1006E
:0C0AFC007808F000F801F201BF200800AB
:100B080083120313EE01EF0169088316A000831214
:100B18006A088316A100803083126A06F0008030CC
:100B28007002031D992D003069020318AA2D0130A7
:100B3800EE000030EF006908003C8316A000831225
:100B48006A08031C013E8316A101A102831620082E
:100B5800A6002108A70083126B088316A8006D2140
:100B680006308312EC000030ED006D08003C031DD8
:100B7800BF2D6C08003C0318DA2D6C086B07F200D7
:100B880001306C02F0000030031C013E6D02F100E0
:100B980070086B0784000008F00072088400700871
:100BA80080000130EC02031CED03B92D6B088400B2
:100BB800203080006E086F040319F82DEC01ED0158
:100BC8006C086B0784000008203A031DEF2DEC0A1F
:100BD8000319ED0AE42D0130EC02031CED036C0847
:0A0BE8006B0784002D308000080028
:100BF200831603130711831212150C309704080091
:100C0200831603131208013EF000F1010318F10AE2
:100C120083126908F400F501AF210630F200700872
:100C2200F4007108F500720803191C2EF50CF40C7F
:100C3200F513FF3E152E0430F1007408F000710820
:100C42000319272EF00D7010FF3E212E3030700553
:100C5200F3007408F0007508F100F10CF00CF113C8
:100C6200F10CF00CF113700895000F309705730822
:040C720097040800DB
:0C0C760083120313950117129712080057
:100C8200B8208A110A128000840AB50A0319B60A2A
:080C9200F003031D412E0800D0
:100C9A008316031386100610061186110612861291
:100CAA0083128610061086120612861106110B2070
:100CBA000B200B20861506158614162086100B208D
:100CCA008614162086100B208614162086100B20F8
:100CDA0006118614162086100B20861416208610FC
:100CEA00861186168614162086100B208612061583
:100CFA0086141620861006118614162086100B20DC
:100D0A0086141620861006158614162086100B20C7
:100D1A0006118614162086108616061686150615DE
:0C0D2A008614162086100B2037140800D9
:100D600021308400143083120313F0009B30B5004F
:080D70000630B6004126080020
:101000008A11B0268A1504308316031788008901D7
:10101000831287138813FF3083160313850083120E
:10102000870183168701831212109210C73083162E
:1010300092008A113B268A158A114D268A150130A5
:101040008316AB008A1130208A150C308316AB0052
:101050008A1130208A158A11F9258A15E9018A1129
:1010600001268A150230E9008A11FD248A157008CC
:101070008312E3007108E4008230FC00DD30FD00E3
:10108000FD0B4028FC0B4028000000006308F00026
:101090006408F1008A1166258A157008E500710858
:1010A000E6007208E7007308E8000A30F000283014
:1010B000F1002030F2007730F3006508F400660894
:1010C000F5006708F6006808F7008A11DA218A152A
:1010D0007008DF007108E0007208E1007308E200A8
:1010E000CB30F0002B30F1002F30F2007E30F300D7
:1010F0006508F4006608F5006708F6006808F70060
:101100008A11DA218A157008BC007108BD007208C6
:10111000BE007308BF00D030F0003F30F1007F30D8
:10112000F2007C30F3006508F4006608F5006708FB
:10113000F6006808F7008A11DA218A157008B800ED
:101140007108B9007208BA007308BB008A11232520
:101150008A157008E9008A1101268A156308E900DA
:101160006408EA004030EB008A1184258A155F0884
:10117000E9006008EA006108EB006208EC00573003
:10118000ED008A11CE228A15831203133C08E90070
:101190003D08EA003E08EB003F08EC004830ED0057
:1011A0008A11CE228A15013083120313E90001301F
:1011B000EA002B30EB008A118C228A150130E900FD
:1011C0000330EA004030EB008A118C228A1502308D
:1011D000E9000130EA002E30EB008A118C228A15DA
:1011E0000230E9000330EA004830EB008A118C221B
:1011F0008A150430FB008E30FC001230FD00FD0B20
:10120000FF28FC0BFF28FB0BFF2800000130831692
:10121000AB008A1130208A150C308316AB008A117E
:1012200030208A150130E9000130EA002630EB0059
:101230008A118C228A150230E9000130EA00573009
:10124000EB008A118C228A150430FB008E30FC00E2
:101250001230FD00FD0B2A29FC0B2A29FB0B2A2941
:10126000000001308316AB008A1130208A150C3043
:0E1270008316AB008A1130208A1532283E29E1
:080D36004E3461344E340034E8
:020D3E0030344F
:060D400056343A34003481
:040D46003034003411
:060D4A0043343A3400348A
:060D500050343A34003477
:080D560049344E3446340034E8
:04400E00F22F000786
:00000001FF
