:020000005C287A
:10000600023083120313FC004930FD00FD0B092862
:0A001600FC0B0928000000000800A0
:0E0020008312031327088A00260882000800B6
:10002E0010208A110A128000840AA60A0319A70A50
:08003E00F003031D1728080060
:1000460083120313AE012A08F1000130F000710893
:1000560003193128F00D7010FF3E2B287008AD00F3
:100066002908840070080005F10071080130031D9D
:100076000030F0002C08F006031959282B08003C24
:100086000318492803200320AB03412829088400CC
:100096002D080005F10071080130031D0030F00045
:1000A6002C08F00603195928FF30AE002E08F00080
:0200B600080040
:1000B80083120313A001A101A201A301A401A501B8
:1000C8008316031788018901831203138601831697
:1000D800860183128501FF3083168500831228115B
:1000E800A811A8100530A900AA010130AB00013001
:1000F800AC0023207008031982282815281D912890
:100108000530A900AA010130AB00AC01232070081A
:1001180003199128013086062811061C4C29053040
:10012800A9000130AA000130AB000130AC00232047
:1001380070080319A028A815A81D4C290530A90086
:100148000130AA000130AB00AC012320700803196C
:100158004C29A8118614A20A0319A30A2208A4008C
:100168002308A5000330FC009730FD00FD0BBA28DA
:10017800FC0BBA28000000000530A9000130AA00D5
:100188000130AB000130AC00232070080319CD28E2
:10019800A814A81CE1280530A9000130AA000130E4
:1001A800AB00AC01232070080319E128861006155E
:1001B800A810D030A2000730A30080302306F0003A
:1001C8008030073A7002031DEB28D0302202031C4E
:1001D800AF2886102508073A031DF428D0302406D6
:1001E800031DF72806102408A2002508A300061DF1
:1001F8004829A20A0319A30A2208A0002308A1007B
:100208000330FC009730FD00FD0B0829FC0B082982
:10021800000000000530A9000130AA000130AB0041
:100228000130AC002320700803191B292814281C4E
:100238002F290530A9000130AA000130AB00AC011C
:100248002320700803192F29861006112810A030C2
:10025800A2000F30A30080302306F00080300F3A50
:100268007002031D3929A0302202031CFD28A201B7
:10027800A301061121080F3A031D4429A0302006C6
:10028800031D472906104C29A201A3018610061157
:0402980076284D294E
:04400E00F22F000786
:00000001FF
