:02000000EC2AE8
:08000600FA1FF213003008009C
:10000E00FB14FB1F1128FF30F300F200F100F0008B
:08001E00FA0DF20CFF3008009E
:100026007B15FB1F1D280130F300F201F101F001E1
:08003600FA0DF20CFF30080086
:0E003E00F201F101F001F801F30100300800B9
:10004C00A0017208031D3B287108F2007008F10032
:10005C00F001A0157208031D3B287108F200F10194
:10006C00A01120167208031949282008F302031D59
:10007C00031C4D280310F21B5128F00DF10DF20D4D
:10008C00F30B41284D280130FC001F20542802306E
:0E009C00FC00132054280430FC000320080050
:1000AA007C188B28FC185C287C19AA285528A001E2
:1000BA007208031D7C287108F2007008F1007808A4
:1000CA00F000F801A0157208031D7C287108F200DF
:1000DA007008F100F001A01120167208031D7C2897
:1000EA007108F200F101A015720803199E28200870
:1000FA00F302031D031CA2280310F21B8B28F80D20
:10010A00F00DF10DF20DF30B8228A2287B1B701C57
:10011A00A628F81FA628F00A0319F10A0319F20AF9
:10012A00031DA628F20CF10CF00CF30A0319AA28F5
:10013A00A6280130FC001F20AD280230FC00132045
:10014A00AD280430FC000320AD280830FC0007204D
:04015A000000080099
:10015E00A53083120313FD00FD0BB3280000000031
:02016E00080087
:100170007B14FB1FC328F201FA1FFF30F200F100CD
:0A018000F000FA0DF20CFF30080049
:10018A008312031372087606A000F801F9017308B6
:10019A007702031CE8287708FD007308F7007D083A
:1001AA00F3007608FD007208F6007D08F200750873
:1001BA00FD007108F5007D08F1007408FD00700863
:1001CA00F4007D08F0007708031961297208FA0023
:1001DA00F217F61777087302F70003191B2908307C
:1001EA007702031C1129F7007408F9007508F40056
:1001FA007608F500F60108307702031C1129F7008A
:10020A007408F9007508F400F50108307702031C38
:10021A0011297A08F2006129770803191B290310AA
:10022A00F60CF50CF40CF90CF70B1429A01F28296D
:10023A00F909F409F509F609F90A0319F40A03197F
:10024A00F50A0319F60A7908F80774080318740FEF
:10025A00F00775080318750FF10776080318760F6B
:10026A00F207A01B4129031C5129F20CF10CF00CD6
:10027A00F80CF30F51295D2903185529F809F009DB
:10028A00F109F209F80A0319F00A0319F10A031924
:10029A00F20A8030FA0659290130FC0055206329F8
:1002AA000230FC00552063290430FC002620632913
:1002BA000830FC00072063290030FC000000080019
:0E02CA008312031328088A0027088200080008
:1002D80083120313FB01FA01F9018030F800F10CD5
:1002E800F00C031C80297408F90775080318750FAA
:1002F800FA070318FB0A0310F01F88297408FA0785
:1003080075080318750FFB07FB0CFA0CF90CF80CB1
:10031800031C73297B08F3007A08F2007908F100BE
:060328007808F000080057
:10032E00831603131208013EF000F1010318F10ABF
:10033E0083122A08F400F5016C210630F2007008D1
:10034E00F4007108F50072080319B229F50CF40CCB
:10035E00F513FF3EAB290430F1007408F00071086C
:10036E000319BD29F00D7010FF3EB729303070050E
:10037E00F3007408F0007508F100F10CF00CF113A5
:10038E00F10CF00CF113700895000F3097057308FF
:04039E0097040800B8
:0C03A200831203138030F606C52008000B
:1003AE0083120313FB01FC01FA0173080319042ADB
:1003BE00FA13F2178630F302F31BE8290319E82922
:1003CE00062AF309F30A08307302031CF529F30019
:1003DE00F20DF2017308031D0310FC2973080319B3
:1003EE00FC290310F20CF30BF8297B1B721C042A58
:1003FE00031C042AF20A03190B2AF1010E2A7B149C
:10040E00FB1F112AF101112A0130FC00132A0030C2
:10041E00FC00132AFF30FC00FC080319172AB82031
:06042E007208F000080056
:10043400831203137008F8007108F000F101F2014F
:10044400F301FB01FC019630F300FA01F01F302A9E
:10045400F809F009F80A0319F00AFA177008F1000C
:0C0464007808F000F801F20126200800E2
:1004700083120313FB017308031D770803198F2AE6
:1004800072087606FA007708F3077E30031C4C2AC0
:10049000F3020318922A4F2AF302031C952A7208CA
:1004A000F8007108FC007008FD00F817F61703103B
:1004B000F201F101F0011830A0007D1C692A7408D6
:1004C000F00775080318750FF10776080318760F03
:1004D000F207F20CF10CF00CF80CFC0CFD0C031004
:1004E000A00B5D2AF21B792AF80DF00DF10DF20D2B
:1004F000F3037B1B701C8B2AF81F8B2AF00A03194D
:10050000F10A0319F20A031D8B2AF20CF10CF00C0C
:10051000F30A0319922AFA1FF2130030972A0130C6
:100520001F20972A02300720972A0430132000004A
:020530000800C1
:10053200831603130711831212150C309704080057
:1005420083120313AF012B08F1000130F000710890
:100552000319AF2AF00D7010FF3EA92A7008AE00F1
:100562002A08840070080005F10071080130031D9B
:100572000030F0002D08F0060319D72A2C08003CA1
:100582000318C72AAF20AF20AC03BF2A2A08840071
:100592002E080005F10071080130031D0030F00043
:1005A2002D08F0060319D72AFF30AF002F08F000FC
:0205B20008003F
:0C05B40083120313950117129712080020
:1005C00065218A110A128000840AA70A0319A80A61
:0805D000F003031DE02A0800FE
:1005D80083120313A101A201A301A401A501A6018D
:1005E8008316031788018901831203138701831671
:1005F8008701831288018316880183128501FF30E1
:10060800831685008312291012149210F93083166C
:100618009200DA2299222918602B0530AA00AB0132
:100628000130AC000130AD00A12270080319602B25
:1006380008152914A101A2018030F000803022069B
:100648007002031D292B2108053C031C5F2B333046
:10065800F0000030F1002108F4002208F5006C21B8
:100668001A227008A3007108A4007208A500730874
:10067800A600D7217008AA00972188158230FC00AF
:10068800DD30FD00FD0B462BFC0B462B0000000067
:1006980088110530FB009130FC00CF30FD00FD0BC8
:1006A800532BFC0B532BFB0B532B00000000A10A10
:1006B8000319A20A202BC52B291CC52B0530AA001B
:1006C800AB010130AC000130AD00A1227008031964
:1006D800C52B08112910A101A2018030F00080303B
:1006E80022067002031D7A2B21080A3C031CC52B25
:1006F8002108F0002208F1001A220030F40000302E
:10070800F5004C30F6008330F70038227008F4000A
:100718007108F5007208F6007308F7000030F00061
:100728000030F1007F30F2008630F300D1217008EC
:10073800A3007108A4007208A5007308A600D721B9
:100748007008AA00972188158230FC00DD30FD0072
:10075800FD0BAC2BFC0BAC2B000000008811053006
:10076800FB009130FC00CF30FD00FD0BB92BFC0BDA
:10077800B92BFB0BB92B00000000A10A0319A20A30
:06078800712B0F2BC62BA4
:04400E00F22F000786
:00000001FF
