:040000008A15002835
:10000600103083120313FD00FD0B072800000800C3
:10001600083083120313FC002330FD00FD0B11286A
:06002600FC0B112808008C
:04002C0000000800C8
:1000300083160313E61B1F288312861121288312BF
:1000400086158316661B272883120611292883121A
:1000500006158316E61A2F2883128610312883127C
:1000600086148316661A37288312061039288312DD
:1000700006148316451A3F28831206164128831258
:1000800006128616162086128316E6194A2883124F
:1000900086114C28831286158316661952288312FE
:1000A00006115428831206158316E6185A2883125F
:1000B00086105C28831286148316661862288312C1
:1000C00006106428831206148316451A6A288312C0
:1000D00006166C28831206128616162086128316C0
:0C00E000451E74280B2075280320080022
:1000EC008316031345126108E60018208316451683
:0200FC000800FA
:1000FE0083120313F801F9011030FC00710DF80D95
:10010E00F90D7408F8027508031C750FF90203182F
:10011E0097287408F80775080318750FF907031068
:0A012E00F00DF10DFC0B8528080010
:1001380083160313E101E301E4011030E500043004
:1001480064020318D128F030831288008030F00050
:100158007008083E840083166509F0007008800066
:10016800162016200F3083120805F0007008831639
:10017800E20070080319CB286308E100620803193C
:10018800C928E20CE213E10AC2280430E400E50DB4
:1001980065100430E307E40AA3286108F0000800AA
:0E01A800033083120313FD00FD0BD82808005E
:1001B6009C207008DC000F3083120805F00003193C
:0E01C600E628D420DE2883165C08F00008002E
:0E01D400831603134F088A004E0882000800AD
:1001E200710DF80DF90D7408F8027508031C750FEE
:1001F200F902F00DF10D0F30FC00710DF80DF90D43
:100202007408701C0A29F8027508031C750FF9029C
:100212000F29F80775080318750FF907F00DF10D8E
:10022200FC0BFE2870181B297408F80775080318C0
:08023200750FF9070000080038
:10023A00831603135C08F2007208F100F20A5D08E3
:10024A00F000DD0A700884000008F00071088400DC
:10025A0070088000710884000008031935292129D3
:06026A005C08F000080032
:10027000831603135C08F2007208F000F20A70089B
:1002800084000008031945293C295C087202F0002B
:0C0290000130F002F101031CF103080032
:10029C00831603135C08F20072088400000803192B
:1002AC005929F20A52297208F100F20A5D08F0008D
:1002BC00DD0A700884000008F000710884007008E2
:1002CC00800071088400000803196D2959295C0805
:0402DC00F000080026
:1002E0008229803083160313DC009529C030DC009E
:1002F00095299430DC009529D430DC009529803094
:10030000DC009529831603135C08013A031971294F
:100310005C08023A031976295C08033A0319792923
:100320005C08043A03197C297F295D03F0005C080E
:10033000F0077008DC007008E600182083164512EC
:10034000DF015F085E07840000080319AF295F081A
:100350005E0784000008E1007620DF0AA129451627
:02036000080093
:10036200831203132230FC00F801F901FA01FB01A8
:10037200FC030319E7290310FB0CFA0CF90CF80C27
:10038200F30CF20CF10CF00C031CB929FC03031959
:10039200D9297408F80775080318750FF907760844
:1003A2000318760FFA0777080318770FFB07BD29A2
:1003B2007408F80775080318750FF907760803180B
:0E03C200760FFA0777080318770FFB0708007D
:1003D00083160313DF0105305F020318F6295F0857
:1003E0005E07840020308000DF0AEB295F085E078B
:1003F00084008001DF035F085E07E0000A30F4003C
:10040000F5015C08F0005D08F1007F207808F0003D
:100410007908F1003030F007831660088400700816
:1004200080000A30F400F5015C08F0005D08F1007E
:100430007F2070088316DC007108DD000030710633
:10044000031D242A00307006031D272A292ADF03F2
:04045000FB2908007C
:1004540083120313FB01FA01F901F801A001730DE2
:10046400F80D7408F8027508031C750FF902760874
:10047400031C760FFA027708031C770FFB020001B6
:10048400031C0130A002F30D0730FC00730DF80DBE
:10049400F90DFA0DFB0DA00D7408731C632AF80204
:1004A4007508031C750FF9027608031C760FFA020F
:1004B4007708031C770FFB020001031C0130A00224
:1004C400742AF80775080318750FF90776080318D6
:1004D400760FFA0777080318770FFB070001031854
:1004E4000130A007F30DFC0B482A720DF80DF90D2D
:1004F400FA0DFB0DA00D7408731C922AF8027508FE
:10050400031C750FF9027608031C760FFA027708AC
:10051400031C770FFB020001031C0130A002A32A75
:10052400F80775080318750FF90776080318760F8E
:10053400FA0777080318770FFB0700010318013047
:10054400A007F20D0730FC00720DF80DF90DFA0D3D
:10055400FB0DA00D7408721CC12AF8027508031C57
:10056400750FF9027608031C760FFA027708031C4C
:10057400770FFB020001031C0130A002D22AF80706
:1005840075080318750FF90776080318760FFA072C
:1005940077080318770FFB07000103180130A00741
:1005A400F20DFC0BA62A710DF80DF90DFA0DFB0DD9
:1005B400A00D7408721CF02AF8027508031C750F4C
:1005C400F9027608031C760FFA027708031C770FEA
:1005D400FB020001031C0130A002012BF80775087F
:1005E4000318750FF90776080318760FFA077708CA
:1005F4000318770FFB07000103180130A007F10D62
:100604000730FC00710DF80DF90DFA0DFB0DA00D6E
:100614007408711C1F2BF8027508031C750FF9026E
:100624007608031C760FFA027708031C770FFB0287
:100634000001031C0130A002302BF80775080318D1
:10064400750FF90776080318760FFA077708031869
:10065400770FFB07000103180130A007F10DFC0B15
:10066400042B700DF80DF90DFA0DFB0DA00D740897
:10067400711C4E2BF8027508031C750FF9027608DD
:10068400031C760FFA027708031C770FFB020001A4
:10069400031C0130A0025F2BF80775080318750FBF
:1006A400F90776080318760FFA0777080318770F07
:1006B400FB07000103180130A007F00D0730FC0010
:1006C400700DF80DF90DFA0DFB0DA00D7408701CDA
:1006D4007D2BF8027508031C750FF9027608031CBC
:1006E400760FFA027708031C770FFB020001031C44
:1006F4000130A0028E2BF80775080318750FF9074F
:1007040076080318760FFA0777080318770FFB07A4
:10071400000103180130A007F00DFC0B622B7018C8
:10072400A12B7408F80775080318750FF9077608E4
:100734000318760FFA0777080318770FFB070800EA
:10074400A03083120313F0000F30F100F201F30123
:0207540008009B
:1007560083160313DC03DC035C08003C0318B82B88
:10076600DC03000000000000AF2B000000000000CA
:0607760000000000080075
:10077C00A223E830F4000330F500F601F701B121B3
:10078C0070088316D8007108D9007208DA00730853
:10079C00DB005008F4005108F500F601F7012A229D
:1007AC0070088316D8007108D9007208DA00730833
:1007BC00DB007008F5007108F6007208F70073088A
:1007CC00F800F80CF70CF60CF50CF813F80CF70C09
:1007DC00F60CF50CF8137508F0007608F1007708A4
:1007EC00F2007808F300F30CF20CF10CF00CF3139C
:1007FC007008D4007108D500A22383165208F400A7
:10080C005308F500F601F701B12183165408F900DD
:10081C005508FA00FB01FC010330F8007908F400DC
:10082C007A08F5007B08F6007C08F70078080319B5
:10083C00262CF40DF50DF60DF70D7410FF3E1D2C46
:10084C002A2270088316D8007108D9007208DA00C1
:10085C007308DB000A30F4000030F5005408F00097
:10086C005508F1007F2070088316D4007108D5005C
:10087C0000307102031D442C033070020318472C06
:10088C00942C480884005B08003C031D572C5A0824
:10089C00003C031D572C5908003C031D572C5808CD
:1008AC00003C0318922C46088004550803196E2C42
:1008BC00D601D70100305702031D662C550856028D
:1008CC0003186E2CDC01AB23D60A0319D70A602C53
:1008DC005408DC00AB234708800555080319862C07
:1008EC00D601D70100305702031D7E2C5508560245
:1008FC000318862CDC01AB23D60A0319D70A782CF3
:10090C005408DC00AB230130D802031CD902031CB1
:0E091C00DA02031CDB02492C470880050800A4
:10092A00831603135008840000080319A92C5008E1
:10093A0084000008F1005108840071080006031DB4
:10094A00A92CD00AD10A952C500884000008F0007E
:10095A00510884000008F002F101031CF1030800A9
:10096A0083160313D501D6015008D7005108D800C1
:10097A0080305106F00080307002031DC62C003012
:10098A0050020318D42C0130D5000030D60050088C
:10099A00003CD7005108031C013ED801D802570871
:1009AA00DC005808DD005208DE00E8210630D300DA
:1009BA000030D4005408003C031DE52C5308003CC9
:1009CA000318002D53085207F20001305302F000B9
:1009DA000030031C013E5402F100700852078400E3
:1009EA000008F00072088400700880000130D30209
:1009FA00031CD403DF2C52088400203080005508E1
:100A0A00560403191E2DD301D4015308520784003A
:100A1A000008203A031D152DD30A0319D40A0A2DFA
:100A2A000130D302031CD4035308520784002D302B
:040A3A008000080030
:100A3E0083160313CD01DB207008CD00762DBA305E
:100A4E00DC00B830DD004E21A72DBA30DC00B63008
:100A5E00DD004E21A72DBA30DC006E30DD004E21B8
:100A6E00A72DBF30DC00BA30DD001D21BA30DC000E
:100A7E00C430DD001D21C516A72DBA30DC003C3078
:100A8E00DD004E21A72DBA30DC003E30DD004E21B8
:100A9E00A72DBA30DC003530DD004E21A72D3730C2
:100AAE00DC004030DD001D21C516A72DBA30DC005C
:100ABE004530DD004E21A72DBA30DC004730DD0079
:100ACE004E21A72DBA30DC004130DD004E21A72D7E
:100ADE00BA30DC004330DD004E21A72DA72D4D0886
:100AEE00013A0319262D4D08023A03192C2D4D08F3
:100AFE00033A0319322D4D08043A0319382D4D08C7
:100B0E00053A0319442D4D08063A03194A2D4D088E
:100B1E00073A0319502D4D08083A0319562D4D0862
:100B2E00093A03195D2D4D080A3A0319632D4D0834
:100B3E000B3A0319692D4D080E3A03196F2D752DB9
:100B4E00BA30DC0038217008D0007108D100CD2DEC
:100B5E003030DC002A30DD001D21EE2D3030DC007F
:100B6E002C30DD001D21EE2D3030DC002130DD007B
:100B7E001D21EE2D3030DC002530DD001D21EE2D47
:100B8E003030DC002F30DD001D21EE2D00305106FF
:100B9E00031DD32D013050060319AF2D0030510621
:100BAE00031DDB2D023050060319B52D0030510602
:100BBE00031DE32D033050060319BB2D00305106E3
:100BCE00031DEB2D043050060319C12DC72D033024
:0E0BDE00DC000130DD00BA30DE0070210800BE
:100BEC00831203137408003A031D052E7508003A8E
:100BFC00031D052EFF30F0007F30F1005E2E8312B6
:100C0C000313FD01F901F801710870040319003494
:100C1C0071087506FA00FA1BFD09FB01F51F1B2E66
:100C2C00F409F509F40A0319F50AF11F222EF0094B
:100C3C00F109F00A0319F10A71087504FA00FA1B9C
:100C4C00372EF1207B184A2EFD1F0034F009F109D4
:100C5C00F00A0319F10AF809F909F80A0319F90A53
:100C6C000034F51F462EF11B422E7108F900700856
:100C7C00F800F101F0012A2EF101F001F00A003424
:100C8C00F109F009FB0A272EF80A0319F90A74086E
:100C9C007802031D2A2E75087902031D2A2EF901EC
:100CAC00F801F00A0319F10AF11F2A2E0000FF3493
:020CBC0008002E
:100CBE00831603135008C8005108F1000130F000EC
:100CCE00710803196E2EF00D7010FF3E682E70081D
:100CDE00C600F0097008C700803050078400700805
:0A0CEE0080058413700880050800DB
:100CF8008316031386120612061086100611861133
:100D080083128612061286110611861006100B2011
:100D18000B200B20861406148616162086120B202C
:100D28008616162086120B208616162086120B2091
:100D380006108616162086120B2086161620861296
:100D4800861086158616162086120B208611061424
:100D580086161620861206108616162086120B2076
:100D680086161620861206148616162086120B2062
:100D78000610861616208612861506158614061481
:0E0D88008616162086120B20831645160800CC
:100D9600803083120313F0007008083E8400FF3091
:040DA60080000800C1
:100DAA00EA208A110A128000840ACE0A0319CF0A9D
:080DBA00F003031DD52E080013
:100EAC00213084004B3083120313F000E1308316A1
:100EBC00CE000630CF00D526A03084001630831229
:100ECC00F0002C308316CE000730CF00D5266C30C6
:100EDC00840004308312F00051308316CE000730AA
:100EEC00CF00D526B63084000F308312F00042308C
:0C0EFC008316CE000730CF00D52608007A
:101000008A1156278A158A11CB268A15831603174B
:1010100088018901831203138501FF30831685003F
:101020008A117C268A150C30E6008A1118208A1550
:1010300007308316D0000330D1008A115F268A154D
:101040008312051825288316C5148316C51C2E285F
:101050008312051C2E288316C51045158316C51846
:101060007529451D752983120518752983164511A3
:101070004510C5120130E6008A1118208A15823009
:10108000FC00DD30FD00FD0B4328FC0B4328000075
:10109000000030308316CB007530CC003C30C900E6
:1010A0000030CA000130DC000130DD006230DE00BB
:1010B0008A1170218A158A111F258A15BA30DC0021
:1010C0008A1138218A1580307106F2008030720250
:1010D000031D6C2804307002031C0029BA30D000B4
:1010E000BF30D1008A1195248A1500307106031D86
:1010F0007B2800307006031DD6280130DC0001304B
:10110000DD00A030DE008A1170218A150630FB0058
:101110001330FC00AD30FD00FD0B8C28FC0B8C283F
:10112000FB0B8C2800000000BA30DC006D30DD00C5
:101130008A111D218A150130E6008A1118208A15AE
:1011400001308316DC000130DD00AC30DE008A1196
:1011500070218A158A111F258A15C51ED4280630CC
:10116000FB001330FC00AD30FD00FD0BB528FC0B7F
:10117000B528FB0BB52800000000BA30DC006C304D
:10118000DD008A111D218A150130E6008A11182020
:101190008A1504308316DC000130DD005C30DE008F
:1011A0008A1170218A15D528A02874298230FC0064
:1011B000DD30FD00FD0BDA28FC0BDA280000000012
:1011C000BA30DC005030DD008A111D218A15023052
:1011D000DC000130DD005130DE008A1170218A15FB
:1011E000F430D0000130D1002C30D2000130D300D7
:1011F0008A11BE238A150130E6008A1118208A154B
:1012000083164908D0004A08D1004930D2008A111B
:10121000B5248A150130DC000A30DD004930DE00DB
:101220008A1170218A150130CB02031CCC033230A5
:10123000F4000030F5004B08F0004C08F1008A1172
:10124000F6258A157808F0007908F100003071065B
:10125000031D2C2900307006031D3D290130831623
:10126000C902031CCA035E30D0000130D100C8306F
:10127000D200D3018A11BE238A1583168030F00074
:1012800080304A067002031D47294908003C031CB0
:10129000732945140130E6008A1118208A1503309D
:1012A0008316DC000130DD004B30DE008A11702136
:1012B0008A157030D0000330D100D030D200073012
:1012C000D3008A11BE238A150630FB001330FC00C0
:1012D000AD30FD00FD0B6A29FC0B6A29FB0B6A2966
:0E12E0000000000074295228C511202876292C
:080DC2002334233423340034F0
:0A0DCA00233423342334233400348F
:040DD4002334003490
:060DD80023342334003433
:020DDE000034DF
:0A0DE0000034003400340034003405
:040DEA003634003467
:0A0DEE0000340034003400340034F7
:040DF800343400345B
:040DFC003534003456
:020E00000034BC
:040E0200393400344B
:040E06003034003450
:040E0A003734003445
:040E0E003834003440
:040E12000034003474
:0A0E160042344F344F344D340034A1
:020E200000349C
:100E220049344E3443344F345234523445344334CB
:060E320054344F3400347B
:0C0E38004C344934533454344F340034EB
:100E440041344334543449345634413444344134C1
:040E54003A340034F8
:100E58004434453453344134433454344934563497
:080E68004134443441340034EC
:100E700041342D3453344934203442342D344E34EB
:040E80004F340034B7
:040E840032340034D0
:040E880031340034CD
:0A0E8C000034003400340034003458
:0A0E96003134323433343434003484
:020EA00000341C
:020EA20000341A
:020EA400003418
:040EA60033340034AD
:04400E00F22F000786
:00000001FF
